:0400000007EF00F016
:0A0008007E827BED0EF0A1EF14F0F4
:10100000004C4544206F66660D004C4544206F6ED1
:091010000D002F300025690000DD
:10101A002C50800B356E2C502C24376E2BAE18EFCB
:10102A0008F01AEF08F01BEF08F037803750D8B4F1
:10103A0021EF08F023EF08F038EF08F03728D8A49A
:10104A0029EF08F02BEF08F033EF08F0000E296EB5
:10105A00000E2A6E000E2B6E000E2C6E2B8E000ECA
:10106A002C6E40EF08F0000E296E000E2A6E000E5C
:10107A002B6E000E2C6E3050800B366E35503618A3
:10108A00D8B44AEF08F04CEF08F04DEF08F0358C71
:10109A0030503024366E2FAE55EF08F057EF08F077
:1010AA0058EF08F036803650D8B45EEF08F060EF9B
:1010BA0008F075EF08F03628D8A466EF08F068EF54
:1010CA0008F070EF08F0000E2D6E000E2E6E000E66
:1010DA002F6E000E306E2F8E000E306E7DEF08F0F0
:1010EA00000E2D6E000E2E6E000E2F6E000E306E4C
:1010FA003750365CD8B084EF08F086EF08F0ADEFD1
:10110A0008F035AC8BEF08F08DEF08F08FEF08F0A0
:10111A00800E351A37C038F036C037F038C036F08E
:10112A0029C038F02DC029F038C02DF02AC038F077
:10113A002EC02AF038C02EF02BC038F02FC02BF06A
:10114A0038C02FF02CC038F030C02CF038C030F046
:10115A00000E386E375036C031F0326A315E000EFA
:10116A00325A32BEC2EF08F0325009E11A0E315C2F
:10117A00D8A0C2EF08F0C4EF08F0FBEF08F029503E
:10118A002A102B102C10D8A4CDEF08F0D0EF08F0BD
:10119A00010ED1EF08F0000E386E000E296E000E17
:1011AA002A6E000E2B6E000E2C6E36C037F004EF3E
:1011BA0009F038A0E3EF08F0E5EF08F0EBEF08F0EC
:1011CA00D89038300109386EEDEF08F0D8903832EF
:1011DA0029A0F2EF08F0F4EF08F0F5EF08F0388EE6
:1011EA002C342C322B322A322932372A3650375CA9
:1011FA00D8A002EF09F004EF09F0DEEF08F035BCE1
:10120A0009EF09F00BEF09F04BEF09F03750D8A4BA
:10121A0011EF09F013EF09F01DEF09F0000E296E26
:10122A00000E2A6E000E2B6E000E2C6E6CEF0AF06A
:10123A002D5029262E502A222F502B2230502C2274
:10124A002CA02AEF09F02CEF09F0D8EF09F038A00A
:10125A0031EF09F033EF09F039EF09F0D89038305F
:10126A000109386E3BEF09F0D890383229A040EFD7
:10127A0009F042EF09F043EF09F0388E2C342C3292
:10128A002B322A322932372AD8EF09F02D50295C1D
:10129A002E502A582F502B582C50800A316E30501D
:1012AA00800A3158D8B05CEF09F05EEF09F089EF97
:1012BA0009F029502D5C316E2A502E58326E2B506F
:1012CA002F58336E2C503058346EFF0E3124296E4D
:1012DA00FF0E32202A6EFF0E33202B6EFF0E3420B3
:1012EA002C6E800E351A386C3850D8A47FEF09F06E
:1012FA0081EF09F091EF09F0010E2926000E2A224A
:10130A002B222C2291EF09F02D50295E2E502A5AB9
:10131A002F502B5A30502C5A29502A102B102C108F
:10132A00D8A49AEF09F09CEF09F0D1EF09F03850F0
:10133A00D8A4A2EF09F0A4EF09F0D1EF09F0000E4A
:10134A00296E000E2A6E000E2B6E000E2C6E6CEFAC
:10135A000AF0D89029362A362B362C3638AEB8EF12
:10136A0009F0BAEF09F0BBEF09F0298038A0C0EF05
:10137A0009F0C2EF09F0C6EF09F0D8803836C8EF95
:10138A0009F0D89038363750D8B4CEEF09F0D0EFFC
:10139A0009F0D1EF09F037062BAED6EF09F0D8EFF6
:1013AA0009F0AEEF09F0000E366E38AEDFEF09F045
:1013BA00E1EF09F0F9EF09F038C031F07F0E31168C
:1013CA00D8B4EAEF09F0ECEF09F0F0EF09F0010EFA
:1013DA00366EF9EF09F029A0F5EF09F0F7EF09F0F9
:1013EA00F9EF09F0ECEF09F03650D8B4FFEF09F045
:1013FA0001EF0AF02CEF0AF0010E2926000E2A222C
:10140A002B222C222CA00CEF0AF00EEF0AF02CEF64
:10141A000AF029C031F02AC032F02BC033F02CC0B8
:10142A0034F03434343233323232313231C029F08A
:10143A0032C02AF033C02BF034C02CF03728D8B48D
:10144A0029EF0AF02BEF0AF02CEF0AF0372A372897
:10145A00D8B432EF0AF034EF0AF03CEF0AF0375012
:10146A00D8A43AEF0AF03CEF0AF04EEF0AF0000E69
:10147A00296E000E2A6E000E2B6E000E2C6E37504F
:10148A00D8A44AEF0AF04CEF0AF04EEF0AF0000E29
:10149A00356E37A053EF0AF055EF0AF058EF0AF00D
:1014AA002B8E59EF0AF02B9ED89037302C6E35AE22
:1014BA0061EF0AF063EF0AF064EF0AF02C8E29C09C
:1014CA0029F02AC02AF02BC02BF02CC02CF01200D5
:1014DA00000E3D6E000E3E6E000E3F6E000E406E18
:1014EA0082EF0CF0AC98AC94B89639C0D9FF3AC0E8
:1014FA00DAFFDECF02F0DECF03F0DECF04F0DECF7C
:10150A0005F0000E2EEC10F002C014F003C015F026
:10151A0004C016F005C017F0000E106E240E116EEE
:10152A00F40E126E4A0E136EAEEC0CF010C041F0BF
:10153A0011C042F012C043F013C044F0000E146E02
:10154A00000E156E800E166E420E176E41C010F018
:10155A0042C011F043C012F044C013F0AEEC0CF0DC
:10156A0010C029F011C02AF012C02BF013C02CF0C1
:10157A00000E2D6E000E2E6E800E2F6EBF0E306E78
:10158A000DEC08F0ADEF0CF0AC98AC84B89639C00D
:10159A00D9FF3AC0DAFFDECF02F0DECF03F0DECFAA
:1015AA0004F0DECF05F0000E2EEC10F002C014F0AD
:1015BA0003C015F004C016F005C017F0000E106E37
:1015CA00240E116EF40E126E4A0E136EAEEC0CF06F
:1015DA0010C041F011C042F012C043F013C044F0F1
:1015EA00000E146E000E156E800E166E410E176EEA
:1015FA0041C010F042C011F043C012F044C013F0D1
:10160A00AEEC0CF010C029F011C02AF012C02BF079
:10161A0013C02CF0000E2D6E000E2E6E800E2F6E53
:10162A00BF0E306E0DEC08F0ADEF0CF0AC98AC9438
:10163A00B88639C0D9FF3AC0DAFFDECF02F0DECF72
:10164A0003F0DECF04F0DECF05F0000E2EEC10F032
:10165A0002C014F003C015F004C016F005C017F05C
:10166A00000E106E240E116EF40E126E4A0E136ED8
:10167A00AEEC0CF010C041F011C042F012C043F0C1
:10168A0013C044F0000E146E000E156E800E166E16
:10169A00410E176E41C010F042C011F043C012F063
:1016AA0044C013F0AEEC0CF010C029F011C02AF0BF
:1016BA0012C02BF013C02CF0000E2D6E000E2E6EF1
:1016CA00800E2F6EBF0E306E0DEC08F0ADEF0CF0F1
:1016DA00AC98AC84B88639C0D9FF3AC0DAFFDECFFD
:1016EA0002F0DECF03F0DECF04F0DECF05F0000E0D
:1016FA002EEC10F002C014F003C015F004C016F06E
:10170A0005C017F0000E106E240E116EF40E126E44
:10171A004A0E136EAEEC0CF010C041F011C042F04C
:10172A0012C043F013C044F0000E146E000E156E82
:10173A00800E166E400E176E41C010F042C011F0B6
:10174A0043C012F044C013F0AEEC0CF010C029F004
:10175A0011C02AF012C02BF013C02CF0000E2D6E0F
:10176A00000E2E6E800E2F6EBF0E306E0DEC08F03E
:10177A00ADEF0CF0AC88B89639C0D9FF3AC0DAFFA1
:10178A00DECF02F0DECF03F0DECF04F0DECF05F0CD
:10179A00000E2EEC10F002C014F003C015F004C0C5
:1017AA0016F005C017F0000E106E240E116EF40E1E
:1017BA00126E4A0E136EAEEC0CF010C041F011C05E
:1017CA0042F012C043F013C044F0000E146E000E33
:1017DA00156E800E166E400E176E41C010F042C094
:1017EA0011F043C012F044C013F0AEEC0CF010C07C
:1017FA0029F011C02AF012C02BF013C02CF0000EF1
:10180A002D6E000E2E6E800E2F6EBF0E306E0DECFA
:10181A0008F0ADEF0CF0AC88B88639C0D9FF3AC0F1
:10182A00DAFFDECF02F0DECF03F0DECF04F0DECF48
:10183A0005F0000E2EEC10F002C014F003C015F0F3
:10184A0004C016F005C017F0000E106E240E116EBB
:10185A00F40E126E4A0E136EAEEC0CF010C041F08C
:10186A0011C042F012C043F013C044F0000E146ECF
:10187A00000E156E800E166E400E176E41C010F0E7
:10188A0042C011F043C012F044C013F0AEEC0CF0A9
:10189A0010C029F011C02AF012C02BF013C02CF08E
:1018AA00000E2D6E000E2E6E800E2F6EBF0E306E45
:1018BA000DEC08F0ADEF0CF03DC002F03EC003F0B5
:1018CA003FC004F040C005F048EC12F00250AF6E81
:1018DA003DC002F03EC003F03FC004F040C005F036
:1018EA0048EC12F003C002F004C003F005C004F093
:1018FA00056A0250B06EADEF0CF020EE04F03950DC
:10190A00D9263A50DA22DF503B6E3C6A3C50000A34
:10191A00D8B492EF0CF061EF0CF03B50000AD8B447
:10192A0077EF0AF0010AD8B4C9EF0AF0030AD8B46B
:10193A001BEF0BF0010AD8B46DEF0BF0070AD8B40D
:10194A00BFEF0BF0010AD8B410EF0CF061EF0CF006
:10195A0012001350800B206E13501324276E12AE00
:10196A00B9EF0CF0BBEF0CF0BCEF0CF0278027505E
:10197A00D8B4C2EF0CF0C4EF0CF0D9EF0CF0272862
:10198A00D8A4CAEF0CF0CCEF0CF0D4EF0CF0000E98
:10199A00106E000E116E000E126E000E136E128E75
:1019AA00000E136EE1EF0CF0000E106E000E116EB9
:1019BA00000E126E000E136E1750800B201A17506D
:1019CA001724286E16AEECEF0CF0EEEF0CF0EFEFEA
:1019DA000CF028802850D8B4F5EF0CF0F7EF0CF093
:1019EA000CEF0DF02828D8A4FDEF0CF0FFEF0CF057
:1019FA0007EF0DF0000E146E000E156E000E166E37
:101A0A00000E176E168E000E176E14EF0DF0000EF4
:101A1A00146E000E156E000E166E000E176E145020
:101A2A00151016101710D8A41DEF0DF01FEF0DF0AA
:101A3A0037EF0DF0000E106E000E116E000E126ED2
:101A4A00000E136E800E12127F0E13122050131204
:101A5A0010C010F011C011F012C012F013C013F030
:101A6A007AEF0EF02750D8A43DEF0DF03FEF0DF0BE
:101A7A0049EF0DF0000E106E000E116E000E126E80
:101A8A00000E136E7AEF0EF0285027C018F0196A6C
:101A9A00185E000E195A7F0E1824216E000E1920A6
:101AAA00226E10C01CF011C01DF012C01EF013C02F
:101ABA001FF0000E106E000E116E000E126E000E58
:101ACA00136E000E236E000E246E000E256E000E9D
:101ADA00266E000E286EAAEF0DF02850D8B478EFC3
:101AEA000DF07AEF0DF091EF0DF0D8901C361D36FF
:101AFA001E361F36D890103611361236133626AED9
:101B0A0089EF0DF08BEF0DF08CEF0DF01080D8906F
:101B1A00233624362536263614501C5C15501D589B
:101B2A0016501E5817501F58D8A09EEF0DF0A0EF60
:101B3A000DF0A9EF0DF0268C14501C5E15501D5A9D
:101B4A0016501E5A17501F5A282A190E2864B0EF29
:101B5A000DF0B2EF0DF072EF0DF01C501D101E10BB
:101B6A001F10D8B4BBEF0DF0BDEF0DF0D5EF0DF09F
:101B7A002380D5EF0DF0D890103611361236133671
:101B8A0026AECAEF0DF0CCEF0DF0CDEF0DF01080C0
:101B9A00D89023362436253626362106D8A02206A2
:101BAA0012AEDAEF0DF0DCEF0DF0C0EF0DF0000E23
:101BBA00286E26AEE3EF0DF0E5EF0DF009EF0EF01B
:101BCA00FF0E2314186EFF0E2414196EFF0E25142F
:101BDA001A6E7F0E26141B6E185019101A101B103D
:101BEA00D8B4FAEF0DF0FCEF0DF000EF0EF0010E95
:101BFA00286E09EF0EF010A005EF0EF007EF0EF0B9
:101C0A0009EF0EF0FCEF0DF02850D8B40FEF0EF0EC
:101C1A0011EF0EF035EF0EF0010E1026000E112214
:101C2A001222132213A01CEF0EF01EEF0EF035EF56
:101C3A000EF010C018F011C019F012C01AF013C03B
:101C4A001BF01B341B321A321932183218C010F02A
:101C5A0019C011F01AC012F01BC013F0214A222A2F
:101C6A0022BE40EF0EF0225008E12128D8A040EF12
:101C7A000EF042EF0EF04DEF0EF0000E226E2168CC
:101C8A00000E106E000E116E000E126E000E136E14
:101C9A0022BE5AEF0EF0225006E12104D8B058EFC6
:101CAA000EF05AEF0EF068EF0EF0000E226E000EE4
:101CBA00216E000E106E000E116E000E126E000ED6
:101CCA00136E000E206E21C027F027A06FEF0EF0D2
:101CDA0071EF0EF074EF0EF0128E75EF0EF0129E89
:101CEA00D8902730136E2BEF0DF012000600F2A8E1
:101CFA0081EF0EF083EF0EF08CEF0EF0F2A288EF78
:101D0A000EF08AEF0EF08CEF0EF0ECEC15F0F0A668
:101D1A0091EF0EF093EF0EF09CEF0EF0F0A098EF1B
:101D2A000EF09AEF0EF09CEF0EF0EAEC15F0F0A828
:101D3A00A1EF0EF0A3EF0EF0ACEF0EF0F0A2A8EFB9
:101D4A000EF0AAEF0EF0ACEF0EF0E8EC15F0F2A6EA
:101D5A00B1EF0EF0B3EF0EF0CEEF0EF0F2A0B8EF47
:101D6A000EF0BAEF0EF0CEEF0EF081A8BFEF0EF034
:101D7A00C1EF0EF0CEEF0EF07C04D8A4C7EF0EF040
:101D8A00C9EF0EF0CEEF0EF0000E7C6E010EC2EC23
:101D9A0015F0F2A6D3EF0EF0D5EF0EF0F0EF0EF03D
:101DAA00F2A0DAEF0EF0DCEF0EF0F0EF0EF081B8F1
:101DBA00E1EF0EF0E3EF0EF0F0EF0EF07C50D8A456
:101DCA00E9EF0EF0EBEF0EF0F0EF0EF0010E7C6E85
:101DDA00000EC2EC15F0F2A6F5EF0EF0F7EF0EF0DA
:101DEA0012EF0FF0F2A0FCEF0EF0FEEF0EF012EF82
:101DFA000FF081AA03EF0FF005EF0FF012EF0FF0CB
:101E0A007B04D8A40BEF0FF00DEF0FF012EF0FF0D9
:101E1A00000E7B6E010EB5EC15F0F2A617EF0FF06F
:101E2A0019EF0FF034EF0FF0F2A01EEF0FF020EFD2
:101E3A000FF034EF0FF081BA25EF0FF027EF0FF014
:101E4A0034EF0FF07B50D8A42DEF0FF02FEF0FF0E7
:101E5A0034EF0FF0010E7B6E000EB5EC15F0F2A612
:101E6A0039EF0FF03BEF0FF056EF0FF0F2A040EF13
:101E7A000FF042EF0FF056EF0FF081AC47EF0FF083
:101E8A0049EF0FF056EF0FF07A04D8A44FEF0FF096
:101E9A0051EF0FF056EF0FF0000E7A6E010EA8EC1C
:101EAA0015F0F2A65BEF0FF05DEF0FF078EF0FF091
:101EBA00F2A062EF0FF064EF0FF078EF0FF081BC41
:101ECA0069EF0FF06BEF0FF078EF0FF07A50D8A4AC
:101EDA0071EF0FF073EF0FF078EF0FF0010E7A6EDB
:101EEA00000EA8EC15F0F2A67DEF0FF07FEF0FF0D1
:101EFA009AEF0FF0F2A084EF0FF086EF0FF09AEF4F
:101F0A000FF081AE8BEF0FF08DEF0FF09AEF0FF01D
:101F1A007904D8A493EF0FF095EF0FF09AEF0FF032
:101F2A00000E796E010E9BEC15F0F2A69FEF0FF0F2
:101F3A00A1EF0FF0BCEF0FF0F2A0A6EF0FF0A8EFA1
:101F4A000FF0BCEF0FF081BEADEF0FF0AFEF0FF067
:101F5A00BCEF0FF07950D8A4B5EF0FF0B7EF0FF040
:101F6A00BCEF0FF0010E796E000E9BEC15F09DACE4
:101F7A00C1EF0FF0C3EF0FF0CCEF0FF09EACC8EF3C
:101F8A000FF0CAEF0FF0CCEF0FF0F2EC15F0F2AA57
:101F9A00D1EF0FF0D3EF0FF0DCEF0FF0F2A4D8EF90
:101FAA000FF0DAEF0FF0DCEF0FF0DBEC15F09DA08D
:101FBA00E1EF0FF0E3EF0FF0ECEF0FF09EA0E8EF88
:101FCA000FF0EAEF0FF0ECEF0FF0D5EC15F09DA251
:101FDA00F1EF0FF0F3EF0FF0FCEF0FF09EA2F8EF26
:101FEA000FF0FAEF0FF0FCEF0FF0E1EC15F0A0A202
:101FFA0001EF10F003EF10F00CEF10F0A1A208EFC0
:10200A0010F00AEF10F00CEF10F0CFEC15F09DA4D1
:10201A0011EF10F013EF10F01CEF10F09EA418EF60
:10202A0010F01AEF10F01CEF10F0F0EC15F0A0A071
:10203A0021EF10F023EF10F02CEF10F0A1A028EF01
:10204A0010F02AEF10F02CEF10F0EEEC15F07E9263
:10205A0011000A6E0A50D8B435EF10F037EF10F0BD
:10206A0059EF10F005BE3EEF10F03CEF10F059EFBB
:10207A0010F002C006F003C007F004C008F005C063
:10208A0009F0061E071E081E091E062A000E072250
:10209A000822092206C00CF007C00DF008C00EF095
:1020AA0009C00FF061EF10F002C00CF003C00DF090
:1020BA0004C00EF005C00FF0025003100410051002
:1020CA00D8A46AEF10F06CEF10F076EF10F0000E63
:1020DA00026E000E036E000E046E000E056E07EF10
:1020EA0011F0960E0B6E80EF10F00B2AD8900F327B
:1020FA000E320D320C32000E0C14066E000E0D1448
:10210A00076E000E0E14086EFE0E0F14096E0650AE
:10211A00071008100910D8A495EF10F097EF10F0E7
:10212A007AEF10F0A5EF10F00B2A010E0C26000E24
:10213A000D220E220F22D8900F320E320D320C329F
:10214A00000E0C14066E000E0D14076E000E0E140F
:10215A00086EFF0E0F14096E0650071008100910BA
:10216A00D8A4BAEF10F0BCEF10F099EF10F0C4EF5A
:10217A0010F00B06D8900C360D360E360F360EBE02
:10218A00C9EF10F0CBEF10F0D3EF10F0020E0B6096
:10219A00D1EF10F0D3EF10F0BEEF10F00BB0D8EF84
:1021AA0010F0DAEF10F0DBEF10F00E9ED8900B3241
:1021BA000BC006F0076A086A096A06C009F0086ACD
:1021CA00076A066A06500C1207500D1208500E12C2
:1021DA0009500F120A50D8B4F5EF10F0F7EF10F0CB
:1021EA00FFEF10F005BEFEEF10F0FCEF10F0FFEF6E
:1021FA0010F00F8E0CC002F00DC003F00EC004F0F8
:10220A000FC005F01200010E0A6E02500310D8B476
:10221A0011EF11F013EF11F024EF11F002C0D9FF02
:10222A0003C0DAFFDF30E832E832070B046E070E2C
:10223A00046422EF11F024EF11F087EF11F0000E81
:10224A000A6EA8EF11F002C0D9FF03C0DAFFDF302F
:10225A00E832E832070B046E010E056E042A38EFE5
:10226A0011F0D8900536042E36EF11F00550FF0A0A
:10227A00066E02C0D9FF03C0DAFFDF50070B076EF4
:10228A000750020DC40EF324D96E000EF420DA6E44
:10229A00DECF08F0DDCF09F008C0D9FF09C0DAFFA8
:1022AA000650DF16A8EF11F002C0D9FF03C0DAFF0B
:1022BA00DF30E832E832070B046E010E056E042A9D
:1022CA0069EF11F0D8900536042E67EF11F002C0BD
:1022DA00D9FF03C0DAFFDF50070B066E0650020D66
:1022EA00C40EF324D96E000EF420DA6EDECF07F0A6
:1022FA00DDCF08F007C0D9FF08C0DAFF0550DF12AA
:10230A00A8EF11F002C0D9FF03C0DAFFDFBC90EFDB
:10231A0011F093EF11F0010E94EF11F0000E046E1C
:10232A00056A0550000AD8B49DEF11F024EF11F0A8
:10233A000450000AD8B428EF11F0010AD8B459EFB2
:10234A0011F024EF11F00A501200010E0B6E025028
:10235A000310D8B4B3EF11F0B5EF11F0CEEF11F0CE
:10236A000450D8B4BBEF11F0BDEF11F0CEEF11F06D
:10237A0002C0D9FF03C0DAFFDF30E832E832070BC8
:10238A00056E070E0564CCEF11F0CEEF11F031EFB8
:10239A0012F0000E0B6E46EF12F002C0D9FF03C016
:1023AA00DAFFDF30E832E832070B056E010E066EFF
:1023BA00052AE2EF11F0D8900636052EE0EF11F06B
:1023CA000650FF0A076E02C0D9FF03C0DAFFDF50CA
:1023DA00070B086E0850020DBA0EF324D96E000ED0
:1023EA00F420DA6EDECF09F0DDCF0AF009C0D9FF9A
:1023FA000AC0DAFF0750DF1646EF12F002C0D9FF13
:10240A0003C0DAFFDF30E832E832070B056E010E4F
:10241A00066E052A13EF12F0D8900636052E11EF34
:10242A0012F002C0D9FF03C0DAFFDF50070B076EB4
:10243A000750020DBA0EF324D96E000EF420DA6E9C
:10244A00DECF08F0DDCF09F008C0D9FF09C0DAFFF6
:10245A000650DF1246EF12F00450056E066A065067
:10246A00000AD8B43BEF12F0CEEF11F00550000A83
:10247A00D8B4D2EF11F0010AD8B403EF12F0CEEFBC
:10248A0011F00B501200043405340B6E0B50D8A413
:10249A0051EF12F053EF12F05DEF12F0000E026EE0
:1024AA00000E036E000E046E000E056ECAEF12F0E7
:1024BA0002C006F003C007F004C008F005C009F026
:1024CA00200E6DEF12F0D890093208320732063228
:1024DA00E82E68EF12F006500A6E048EFF0E0216FE
:1024EA00FF0E0316FF0E0416000E0516960E0B5E5F
:1024FA000BBE84EF12F082EF12F09AEF12F00B503B
:10250A00800A970FD8B08CEF12F08EEF12F090EF8E
:10251A0012F053EF12F0D89005320432033202322D
:10252A000B3E90EF12F0B2EF12F01F0E0B64A0EF09
:10253A0012F0A2EF12F0AAEF12F053EF12F0D890B5
:10254A0002360336043605360B060B50D8A4B0EF14
:10255A0012F0B2EF12F0A4EF12F00A50D8B4B8EFAA
:10256A0012F0BAEF12F0C2EF12F0051E041E031E9B
:10257A00026C000E03220422052202C002F003C0EC
:10258A0003F004C004F005C005F012002BEC15F0AE
:10259A007D0E106E000E116EB7EC13F0780E026EFF
:1025AA00000E036E79EC15F00001FE6FFE05D8A44B
:1025BA00E1EF12F0E3EF12F0D3EF12F0610E7818A8
:1025CA00D8A4EAEF12F0ECEF12F0FEEF12F07D0E53
:1025DA000C6E000E0D6EF5EC13F00A0E036E100E63
:1025EA00046E000E066E070E056E01EC15F0D3EFB1
:1025FA0012F0620E7818D8A405EF13F007EF13F063
:10260A0019EF13F07D0E0C6E000E0D6E30EC14F007
:10261A00010E036E100E046E000E066E080E056E95
:10262A0001EC15F0D3EF12F0D3EF12F007EF00F040
:10263A0020EE05F00250D9260350DA22DFAA28EF4D
:10264A0013F02AEF13F069EF13F0AC8A20EE05F0CD
:10265A000250D9260350DA22DFAC36EF13F038EFF6
:10266A0013F03BEF13F09D8849EF13F020EE05F0CD
:10267A000250D9260350DA22DFBC46EF13F048EFA6
:10268A0013F049EF13F09D9820EE05F00250D92679
:10269A000350DA22DFAE54EF13F056EF13F059EF7E
:1026AA0013F0AC8C69EF13F020EE05F00250D92636
:1026BA000350DA22DFBE64EF13F066EF13F069EF1E
:1026CA0013F0AC9C69EF13F0120020EE06F00250F2
:1026DA00D9260350DA22DFAA75EF13F077EF13F049
:1026EA00B6EF13F0AB8820EE06F00250D92603505D
:1026FA00DA22DFAC83EF13F085EF13F088EF13F0E3
:10270A009D8A96EF13F020EE06F00250D926035068
:10271A00DA22DFBC93EF13F095EF13F096EF13F084
:10272A009D9A20EE06F00250D9260350DA22DFAE37
:10273A00A1EF13F0A3EF13F0A6EF13F0AB8CB6EFF3
:10274A0013F020EE06F00250D9260350DA22DFBE3B
:10275A00B1EF13F0B3EF13F0B6EF13F0AB9CB6EF93
:10276A0013F01200010E136E10501110D8A4C0EF0E
:10277A0013F0C2EF13F0C6EF13F0000E136EF3EF6F
:10278A0013F077C014F010C0D9FF11C0DAFFDF5080
:10279A000F0B126E14501218F80B1218146E10C088
:1027AA00D9FF11C0DAFFDF38070B126E1246124644
:1027BA00124614501218C70B1218146E149C10C02B
:1027CA00D9FF11C0DAFFDFAE02D0148E01D0149EF9
:1027DA00140E0C6E000E0D6E6BEC14F013501200FA
:1027EA000C500D10D8A4FCEF13F0FEEF13F000EF1D
:1027FA0014F02FEF14F076C00FF00CC0D9FF0DC003
:10280A00DAFFDF500F0B0E6E0F500E18F80B0E1872
:10281A000F6E0CC0D9FF0DC0DAFFDF38070B0E6E42
:10282A000E460E460E460F500E18C70B0E180F6EA8
:10283A000F9C0CC0D9FF0DC0DAFFDFAE02D00F8E9D
:10284A0001D00F9E0F0E026E000E036E010E046E73
:10285A00AAEC11F012000C500D10D8A437EF14F0A6
:10286A0039EF14F03BEF14F06AEF14F075C00FF073
:10287A000CC0D9FF0DC0DAFFDF500F0B0E6E0F50E0
:10288A000E18F80B0E180F6E0CC0D9FF0DC0DAFF28
:10289A00DF38070B0E6E0E460E460E460F500E1808
:1028AA00C70B0E180F6E0F9C0CC0D9FF0DC0DAFFB4
:1028BA00DFAE02D00F8E01D00F9E0F0E026E000EF9
:1028CA00036E000E046EAAEC11F012000C500D10EB
:1028DA00D8B472EF14F074EF14F085EF14F00CC052
:1028EA00D9FF0DC0DAFFDF30E832E832070B0E6E8F
:1028FA00070E0E6483EF14F085EF14F089EF14F0DD
:10290A00000E0F6E9FEF14F00CC002F00DC003F022
:10291A0008EC11F00F6E0CC002F00DC003F00CC0F1
:10292A00D9FF0DC0DAFF000EDFBE010E046EAAEC5D
:10293A0011F00F6E0F501200A40EF66E290EF76EEC
:10294A00000EF86E00EE80F010EE5EF00900F5CF92
:10295A00EEFFE550E150FAE1CA0EF66E2B0EF76E65
:10296A00000EF86E00EE79F010EE05F00900F5CFD2
:10297A00EEFFE550E150FAE100EEDEF0200EEE6ADD
:10298A00E806FDE100EE58F0210EEE6AE806FDE1E8
:10299A007E907E920001CBEF12F0370000380000E3
:1029AA003900002F00003400003500003600002AEC
:1029BA0000003100003200003300002B0000230029
:1029CA00003000003D00002D0000800F810F820FB3
:1029DA00830F840F890F8A0F8B0F8C0F8D0F920F25
:1029EA00930F940F950F960F323A030B131B232B59
:1029FA00333B020A121A222A010E096E000E0B6ECE
:102A0A00000E0A6E000E0B6E000E0A6E1EEF15F017
:102A1A000A500324076E0B500420086E07C0F6FF05
:102A2A0008C0F7FFF86A0800F5508EEC15F00A4A5C
:102A3A000B2A05500A5C06500B58D8A027EF15F050
:102A4A0029EF15F00DEF15F009501200800E486EAF
:102A5A00250E496E000E4A6E000E4B6E000E4C6E2D
:102A6A004D8A4D9C4D9E4E8A4E9C4E9E000E546E33
:102A7A00000E556E000E566E000E576E000E526E08
:102A8A00000E536E000E506E000E516E480E456ECB
:102A9A00000E466E52EC15F01200010E476E4550BC
:102AAA004610D8A45BEF15F05DEF15F061EF15F055
:102ABA00000E476E77EF15F0AB9E948C948E45C04E
:102ACA0039F046C03AF06DEC0AF045C002F046C053
:102ADA0003F01DEC13F045C002F046C003F06AECA7
:102AEA0013F0AB8E475012009EAA7EEF15F080EFCE
:102AFA0015F08AEF15F002C0D9FF03C0DAFFAECF96
:102B0A00DFFF010E046E8CEF15F0000E046E045008
:102B1A001200026E93EF15F002C0ADFFACA298EF5F
:102B2A0015F09AEF15F091EF15F01200016EF29080
:102B3A000150D8A4A3EF15F0A5EF15F0A7EF15F0F3
:102B4A00A7EF15F01200016EF2900150D8A4B0EF71
:102B5A0015F0B2EF15F0B4EF15F0B4EF15F012005E
:102B6A00016EF2900150D8A4BDEF15F0BFEF15F039
:102B7A00C1EF15F0C1EF15F01200016EF29001508D
:102B8A00D8A4CAEF15F0CCEF15F0CEEF15F0CEEFC2
:102B9A0015F01200A192E5C0B3FFE4C0B2FF120023
:102BAA009E90E9C0CFFFE8C0CEFF1200F2945950C0
:102BBA00D76E58C0D6FF12009E9270C0CCFF12008A
:052BCA000101010103FF
:102BD000F0921200F0901200F2921200A1901200F6
:082BE0009E9412009E9C12005D
:020000040030CA
:0E000000FF021F1EFF8181FF0FC00FE00F40A7
:00000001FF
